:020000040800F2
:10000000F0FF0010298A040895B100080552030882
:10001000C98A0408C98A0408C98A040800000000C3
:1000200000000000000000000000000091B1000886
:100030008DB100080000000089B10008C133030839
:10004000C98A0408C98A0408C98A0408C98A040834
:10005000C98A0408C98A0408655303087953030848
:1000600075530308715303086D5303081D6C04088E
:100070000D6C0408FD6B0408ED6B0408D96B0408D3
:10008000C56B0408B16B0408C98A0408C98A04084E
:10009000C98A0408C98A0408C98A0408695303087C
:1000A0001D2D0308A52D03080D2D0308CD2D0308D4
:1000B000952D0308852D0308752D0308F17A040892
:1000C000F97A0408E57A0408ED7A0408C98A040874
:1000D000C98A040851340308413403083134030841
:1000E00061530308C98A040835030108FD2C03087D
:1000F0002D2D0308ED2C0308552D03089D6B0408D6
:10010000C98A0408DD4D0408652D0308C98A04085E
:100110002134030811340308C98A0408C98A040871
:10012000896B0408756B0408616B04084D6B040847
:10013000396B0408C98A0408C98A0408C98A0408F2
:10014000C98A0408C98A0408C98A040849F8000849
:10015000256B0408116B0408FD6A040801340308C8
:10016000D97A0408E17A0408C98A0408C98A04080B
:10017000C98A0408C98A0408C98A0408C98A040803
:08018000C98A0408C98A0408B9
:08018800D8850400010000000D
:100190000E02010002000000182700202C3B002066
:1001A000000000009808000814020100050000008B
:1001B0001C270020303B0020000000009A080008A7
:1001C00013020100040000002C180020383B00201E
:1001D00000000000A008000812200100110000002B
:1001E000183B00203C3B002000000000A408000851
:1001F0000D1001007000000090260020503B0020F0
:1002000000000000199E0208090201000100000020
:10021000F0310020C03B002000000000B6080008BC
:100220002C000500140000003C260020C43B0020E8
:1002300000000000ED920108FD0101002400000013
:1002400000260020D83B002000000000E30C03083B
:10025000FB01010001000000F8250020FC3B00200C
:100260000000000041890308FC01010009000000B2
:10027000C4240020003C002000000000498903083D
:10028000F701010006000000982400200C3C00202B
:1002900000000000B8080008F90101000400000097
:1002A00088240020143C0020000000003D0D0308BD
:1002B000110201000800000020240020183C00204A
:1002C00000000000BE080008121201000400000037
:1002D00018240020203C002000000000C608000870
:1002E0001820010030000000E8230020243C0020FA
:1002F00000000000498E0308E8030100020000002E
:10030000D8280020543C002000000000D9890308B0
:10031000204201009000000038230020583C0020BB
:10032000000000004D9401080610010028000000A4
:1003300010230020E83C002000000000058A03088C
:10034000EA0301000600000008230020103D002001
:1003500000000000CA080008FF11010006000000AC
:10036000B4220020183D0020000000002D89030861
:10037000081203000F000000C0220020203D0020D2
:100380000000000081890308FA0101000300000059
:10039000A0220020303D00200000000061890308F9
:1003A000FE0101001400000058290020343D002007
:1003B00000000000CD8803080510010006000000C1
:1003C000749F002030A2002000000000D008000828
:1003D000371001002E000000F89B002038A20020FA
:1003E00000000000D60800081E00010009000000FF
:1003F0008C99002068A20020000000000409000879
:100400001B1001000C000000248C002074A20020AE
:10041000000000001D16010821020100E00000009C
:100420002C8A002080A20020000000007526010810
:10043000261001000E00000070A3002060A3002021
:1004400000000000ED0F01080B3001001A00000051
:10045000D88B0020B0A30020000000000E09000887
:100460001F30010024000000008A0020CCA30020DF
:100470000000000028090008050201000400000037
:10048000C89C0020F0A30020000000004C090008D8
:10049000E90301001C000000DCBA0020F8BA0020CB
:1004A00000000000500900082A0008006000000059
:1004B000BCB9002014BB002000000000119401080A
:1004C000340001000A000000B0B9002074BB002015
:1004D0000000000039940108292014007800000071
:1004E0001CAD002080BB00200000000000000000C8
:1004F0002B00120024000000ACAC0020F8BB002050
:1005000000000000BD920108190201001000000067
:1005100060AB00201CBC00200000000069890308BB
:100520000A8001003600000084A600202CBC0020B8
:10053000000000004D8D01081C0202001C0000009C
:1005400044A9002064BC0020000000009D8F030827
:10055000232001001000000008AA002080BC002019
:1005600000000000A98D01082820010018000000EB
:1005700060A9002090BC00200000000025A4010814
:10058000041201000200000044AB0020A8BC0020BF
:10059000000000006C0900080F02010001000000CB
:1005A00040AB0020ACBC0020000000006E09000839
:1005B000290201004000000058BF002014C900209B
:1005C0000000000070090008231201001000000064
:1005D00090C2002074C9002000000000B00900088B
:1005E000101001000200000044C8002084C900204F
:1005F00000000000C00900080C2006009C0000005C
:1006000088C7002088C9002000000000DD1602080D
:100610000001010004000000ECBE002024CA0020FC
:1006200000000000C20900080201010003000000F0
:1006300054BF002028CA002000000000091702084B
:10064000130001000400000004C900202CCA00208F
:1006500000000000C80900082F100100220000005F
:10066000E0C8002030CA002000000000CC090008CB
:10067000190001000500000080C1002054CA0020BC
:1006800000000000EE090008012001000C0000003D
:1006900090C100205CCA002000000000F40900089E
:1006A000EC031D00AE000000D4C1002068CA002089
:1006B00000000000710F0208EB0320008001000021
:1006C00098BF002018CB00200000000000000000B0
:1006D0000EF006007002000008CF002098CC002029
:1006E00000000000250F0208381001000100000082
:1006F00030D5002094D8002000000000000A000837
:10070000020001000C000000A4D5002098D80020B1
:100710000000000000000000F62101000C000000B5
:1007200054D70020A4D8002000000000040A0008CC
:10073000F821010001000000F0D60020B0D8002010
:1007400000000000100A00082530200040010000D1
:10075000B0D50020B4D80020000000000000000048
:10076000280204000400000024DE002044E10020F0
:1007700000000000ED8903082702040004000000C7
:1007800020DE002048E1002000000000E18903088D
:10079000160215003F000000F4D900204CE10020B3
:1007A000000000003D8903081A0201003C0000001F
:1007B000B0DA00208CE1002000000000D18E030898
:1007C0001D02020006000000ACE70020C4E7002084
:1007D00000000000000000001B02010010000000EB
:1007E000DCF00020CCF0002000000000F1890308BC
:1007F000060203000C000000B8E70020ECF0002027
:10080000000000006D9003081F02080010000000A7
:1008100008F10020F8F0002000000000E58803083F
:10082000000201000B000000ECE2002018F10020A3
:100830000000000079890308161001000400000080
:10084000F8E2002024F1002000000000120A000855
:100850000202010003000000F4200120F02001202A
:1008600000000000000000000B1201003C0000002E
:1008700068140120F820012000000000180A000878
:100880000D12010014000000501901203421012034
:0808900000000000540A0008FA
:100898000000000000FF000000000100000000014F
:1008A800000553343035000000000200000000004D
:1008B8000000010000000000000001010101FFFF2D
:1008C800FFFF0000000000002000030100002000DE
:1008D8003200C800D00796001400320028004C04EB
:1008E80040060005500014000F00080064000100D5
:1008F800010005000A000000F4019600000501004F
:10090800000000000000AE014A015E012C016400F5
:100918000000000001000A019A01001E0A00000000
:1009280000000000000100000005000001020300B3
:1009380000000000000000000000000000000000AF
:10094800008007000000000001006400140014008B
:100958001E000A0000000000320014001400C80045
:1009680096000000000000000000000000000000E9
:10097800000000000000000000000000000000006F
:10098800000000000000000000000000000000005F
:10099800000000000000000000000000000000004F
:1009A800000000000000000000000000000000003F
:1009B8000000000000000000000590010000000099
:1009C800000000000000000000000000000000001F
:1009D800000000000000000000000000000000000F
:1009E800000000000000000028010000E803640087
:1009F800040A000114001E000000000000000000AE
:100A080001000000020200000100C409000000000B
:100A180000000000000000000000000000000000CE
:100A280000000000000000000000000000000000BE
:100A380000000000000000000000000000000000AE
:100A4800000000000000000001000000000000009D
:100A5800000000000000000000000000000000008E
:100A68000403090412010002EF0201408304563214
:100A7800000201020301000012010002020200400C
:100A8800830440570002010203010000090220000C
:100A9800010104C0320904000002080650050705D8
:100AA80081024000000705010240000009026400BD
:100AB800030100C0320904000001030000000921FD
:100AC800110100012236000705830309000A080BFB
:100AD80001020202010009040100010202010005ED
:100AE8002400100105240100020424020205240642
:100AF8000102070582030800FF09040200020A0038
:100B080000000705010240000007058102400000BF
:100B180009024300020100C0320904000001020278
:100B2800010005240010010524010001042402022B
:100B38000524060001070582030800FF09040100D7
:100B4800020A0000000705010240000007058102B3
:100B580040000000FF000000FFFFFFFF00600240B0
:100B6800106002400000000000000000000B0000C0
:100B780000000000000000000000000000600240CB
:100B8800286002400100000000000000060C000080
:100B980000000000000000000000000000600240AB
:100BA800406002400200000000000000100D00003C
:100BB800000000000000000000000000006002408B
:100BC800586002400300000000000000160E0000FC
:100BD800000000000000000000000000006002406B
:100BE800706002400400000000000000200F0000B8
:100BF800000000000000000000000000006002404B
:100C08008860024005000000000000002610000077
:100C1800000000000000000000000000006002402A
:100C2800A060024006000000000000003011000033
:100C3800000000000000000000000000006002400A
:100C4800B86002400700000000000000362F0000D6
:100C580000000000000000000000000000640240E6
:100C6800106402400000000000000000003800008E
:100C780000000000000000000000000000640240C6
:100C8800286402400100000000000000063900004E
:100C980000000000000000000000000000640240A6
:100CA800406402400200000000000000103A00000A
:100CB8000000000000000000000000000064024086
:100CC800586402400300000000000000163B0000CA
:100CD8000000000000000000000000000064024066
:100CE800706402400400000000000000203C000086
:100CF8000000000000000000000000000064024046
:100D0800886402400500000000000000264400003E
:100D18000000000000000000000000000064024025
:100D2800A0640240060000000000000030450000FA
:100D38000000000000000000000000000064024005
:100D4800B8640240070000000000000036460000BA
:100D58000000000000000000000000007D0000000E
:100D68000000000039C9000819CA0008B19000083D
:100D780099CA000889CB0008998300087183000884
:100D8800558300088D930008ED9000083D920008F7
:100D98000DCE0008C9EF00088DCE00088583000835
:100DA8005D8300084D830008010000000000803FBB
:100DB80005010905A101A100050109300931093220
:100DC800093309350934093609371581257F75082E
:100DD80095088102050919012908150025019508BA
:100DE80075018102C0C0000009022200010100E073
:100DF8003209040000010301020009211101000168
:100E08002236000705830309000A000000000000DD
:100E1800010203040102030406070809B5DD0008FE
:100E28008DE5000805E10008498500089587000858
:100E38005985000875850008218500081185000876
:100E4800000000000000000015830008118300085E
:100E58000D83000801830008FD820008098300084B
:100E6800058300080100000000000100FFFFFFFFEC
:100E7800010000004257020000000106425702002C
:100E880000000106A8A300200000000080A30020A5
:100E98000000000001FF0000EC500508F4500508B0
:100EA800000000008D170208A08601000400000061
:100EB800000000000000000000000000000000002A
:100EC800000000000000000000000000000000001A
:100ED8000000000000000000EC500508FC50050868
:100EE8000000000041140308E803000004000000AB
:100EF80000000000000000000000000000000000EA
:100F080000000000000000000000000000000000D9
:100F18000000000000000000045105080000000067
:100F280000000000512802087D000000FF000000BA
:100F380000000000000000000000000000000000A9
:100F48000000000000000000000000000000000099
:100F580000000000000000001488050800000000E0
:100F6800000000001D2302087D000000FF000000B3
:100F78000000000000000000000000000000000069
:100F88000000000000000000000000000000000059
:100F98000000000000000000DC67050800000000F9
:100FA80000000000C16E02087D000000FF00000084
:100FB8000000000000000000000000000000000029
:100FC8000000000000000000000000000000000019
:100FD80000000000000000000C510508000000009F
:100FE80000000000490E0308E803000003000000A9
:100FF80000000000000000000000000000000000E9
:1010080000000000000000000000000000000000D8
:10101800000000000000000010510508000000005A
:10102800000000008D3702081027000003000000B0
:1010380000000000000000000000000000000000A8
:101048000000000000000000000000000000000098
:1010580000000000000000004C84050800000000AB
:10106800E5DB0108493903085F7600000500000048
:101078000000000000000000000000000000000068
:101088000000000000000000000000000000000058
:101098000000000000000000D887050800000000DC
:1010A80000000000A98003081027000001000000CC
:1010B8000000000000000000000000000000000028
:1010C8000000000000000000000000000000000018
:1010D80000000000000000001C510508000000008E
:1010E80000000000910B0308E80300000500000061
:1010F80000000000000000000000000000000000E8
:1011080000000000000000000000000000000000D7
:101118000000000000000000285105080000000041
:1011280000000000892E02081027000003000000BC
:1011380000000000000000000000000000000000A7
:101148000000000000000000000000000000000097
:1011580000000000000000003851050800000000F1
:1011680000000000252D02081027000003000000E1
:101178000000000000000000000000000000000067
:101188000000000000000000000000000000000057
:1011980000000000000000004851050800000000A1
:1011A800000000006D110308400D0300030000005B
:1011B8000000000000000000000000000000000027
:1011C8000000000000000000000000000000000017
:1011D8000000000000000000585105080000000051
:1011E8000000000065E00208102700000100000070
:1011F80000000000000000000000000000000000E7
:1012080000000000000000000000000000000000D6
:101218000000000000000000605105080000000008
:1012280000000000D9320108102700000300000068
:1012380000000000000000000000000000000000A6
:101248000000000000000000000000000000000096
:1012580000000000000000006451050800000000C4
:1012680000000000D9BD0108A086010001000000AF
:101278000000000000000000000000000000000066
:101288000000000000000000000000000000000056
:1012980000000000000000006C510508000000007C
:1012A80000000000999C020850C3000001000000E3
:1012B8000000000000000000000000000000000026
:1012C8000000000000000000000000000000000016
:1012D8000000000000000000745105080000000034
:1012E800000000002D9A0208A086010000000000FE
:1012F80000000000000000000000000000000000E6
:1013080000000000000000000000000000000000D5
:1013180000000000000000008051050800000000E7
:101328000000000009C00208A861000001000000D8
:1013380000000000000000000000000000000000A5
:101348000000000000000000000000000000000095
:1013580000000000000000008C510508000000009B
:10136800000000009D9E0208A00F00000100000080
:101378000000000000000000000000000000000065
:101388000000000000000000000000000000000055
:10139800000000000000000098510508000000004F
:1013A80000000000E174010810270000010000009F
:1013B8000000000000000000000000000000000025
:1013C8000000000000000000000000000000000015
:1013D8000000000000000000A45105080000000003
:1013E80000000000250B0108102700000100000084
:1013F80000000000000000000000000000000000E5
:1014080000000000000000000000000000000000D4
:101418000000000000000000B051050800000000B6
:10142800000000000564020840420F0000000000B0
:1014380000000000000000000000000000000000A4
:101448000000000000000000000000000000000094
:101458000000000000000000BC510508000000006A
:1014680000000000759E020850C300000000000044
:101478000000000000000000000000000000000064
:101488000000000000000000000000000000000054
:101498000000000000000000FF000000D60100006E
:1014A800A4A70020F8A70020010000000001010106
:1014B800000101000000803F000000000000000063
:1014C800000000000000803F000000000000000055
:1014D8000000000000000000000000000000000004
:1014E80000000000000000000000000001010000F2
:1014F8000000FA430000FA4381E2020800000000FD
:1015080000000000000000000000000064C9002086
:10151800080000000000000054C900200800000076
:10152800FFFFFFFF020102FFFF010000685E0C00E1
:10153800A98B0008A5860008E5E000080000000067
:101548000D85000881DD00085D8B0008F5DC0008CA
:101558000000000000000000C9840008258300087E
:101568001983000845D4000861D4000829D400086C
:101578000DD40008F1D30008618B000881860008AB
:1015880031E0000800000000E1840008F9DC0008F0
:10159800318B000851DC000800000000000000004A
:1015A800D5840008FFFF0000FFFFFFFF4084050807
:1015B8000000080205030300000000004884050835
:1015C800010008020504030000000000E05D0508B2
:1015D8000200FE010110030000000000346205084B
:1015E80003001402000300000000000050840508F6
:1015F80004001F02020008000000000058840508CB
:1016080005001F0202010800000000001A03000084
:1016180000000000000000000000000000000000C2
:101628000000000000000000040309041201000289
:10163800000000408304205700020102030100005B
:101648004199030815990308B9980308C58A03083E
:10165800D598030879980308C18A03086C0E0020FE
:10166800359A03084D8F0308259A0308A58A0308AD
:10167800E199030899990308958A0308480E002000
:1016880051930308AD8A0308A98A0308A18A0308AD
:101698009D9303089D8A0308998A03083C0105085D
:1016A800358C0008618600084DDE00080000000047
:1016B8000000000045DB00086DDB000800000000AA
:1016C8000000000000000000BD8400084D8B0308E6
:1016D800418B03088D9A0308A99A0308F98A03081D
:1016E800719A0308559A0308FFFFFFFF1F000000C7
:1016F8001C0000001F0000001E0000001F0000006A
:101708001E0000001F0000001F0000001E00000057
:101718001F0000001E0000001F0000000068214C90
:10172800008002021F00000053544D20202020207A
:1017380050726F64757420202020202020202020E3
:10174800302E3031008002021F00000053544D201B
:101758002020202050726F647574202020202020C3
:1017680020202020302E30310B01010050C3000012
:1017780001010125202C05082A00000000000401B1
:101788000000000000000002100000000700000038
:101798000000000000000000010203040607080919
:1017A80001000000D00E0020000000000000000032
:1017B8000000000000000000000000000000000021
:1017C8000000000000000000000000000000000011
:1017D8000000000000000000000000000000000001
:1017E80000000000000000000000000000000000F1
:1017F80000000000000000000000000000000000E1
:081808000000000000000000D8
:0828000000C00F0800001008E1
:10800000F0B401292A4C2B4D23684FF0000694BF91
:1080100000270127EE626662A6626763676B47EA24
:1080200042076763EE63EC6B002A38D144F4957421
:10803000EC631C6824F001041C601C68E407FCD499
:10804000490289085960D8601968EAB921F04001ED
:10805000196019498B421DD018494FF47410C8603B
:10806000196841F01E011960596941F08001596198
:10807000196841F00101196022B90E4AD36A43F030
:108080000803D362F0BC704741F0400119600A490F
:108090008B42E1D14FF0746041F8500CE0E744F0BE
:1080A0001A04EC63EC6A44F00804EC62C1E700BF18
:1080B000300F0020002C0140586402400064024050
:1080C0001148002302461178032902F1060216D056
:1080D0000133062BF7D10D4AD36D052B0ED0591C59
:1080E00003EB4303D16500EB4303032040F2EB3184
:1080F00040F2FF32187059809A807047704703EB46
:10810000430300EB4303F0E7680F0020300F00202B
:1081100070B4C3080D4CE25C00F00706B24004EBFB
:10812000D004D2B20020C6F108038B4228BF0B4610
:10813000C3F108052A419840C91A40EA02004FF0ED
:10814000000614F8012FEED170BC7047D00F00204C
:10815000084AD2E9343199420AD0D118013391F852
:10816000D8100170C3F30A03C2F8D0300120704761
:1081700000207047300F0020064AD2F8D838D2F8D5
:10818000DC28934294BF4FF400600020013B9B1A0F
:1081900018447047300F0020012380F85130704799
:1081A00007B501A8FFF7D4FF0028FAD09DF8040016
:1081B00003B05DF804FB044BD3E93403984288BF55
:1081C00003F50063181A7047300F00200120704734
:1081D000024BC3F8E028C3F8E4187047300F0020C2
:1081E000024BC3F8E828C3F8EC187047300F0020A2
:1081F0007047704730B4134DD5E934239A4286BF97
:1082000003F50064A21A9A1A0A44B2F5006F13D853
:10821000A9B101444A1E013810F8014FE918824201
:1082200003F1010381F8D840C3F30A03F4D1C5F880
:10823000D430002030BC7047022030BC7047084664
:10824000F8E700BF300F0020212838B50C4605D0D4
:1082500022282ED0202813D0002038BD0029FBD0A2
:10826000072AF9D11A4BD3F8F00893F8F41893F8C9
:10827000F52893F8F638206021716271A371EBE75D
:108280000029E9D0072AE7D1114DD5F8E4381BB110
:108290000968D5F8E0089847206821796279A379C0
:1082A000C5F8F00885F8F41885F8F52885F8F6384B
:1082B000D2E70029D0D0022ACED1054AD2F8EC3834
:1082C000002BC9D00988D2F8E8089847C4E700BF56
:1082D000300F0020024B0020C3F8F808704700BFA1
:1082E000300F0020044B00200522C3F8F828C3F803
:1082F000EC08C3F8E4087047300F0020704700BF57
:10830000704700BF704700BF704700BF704700BF95
:10831000704700BF704700BF042301480B807047BF
:108320008801002010B4074A074B92F8FC08122479
:1083300003F114020C8001280CBF184610465DF8AA
:10834000044B7047300F00208C010020004870471C
:10835000B80F002000487047B80F0020034B93F877
:108360008400032894BF002001207047300F0020B4
:10837000034B93F88400032894BF0020012070472A
:10838000300F0020034B93F88400003818BF012001
:10839000704700BF300F0020034B93F88400003873
:1083A00018BF0120704700BF300F0020A0B18268C5
:1083B0000D4B12B107229A7070471978DA600329C1
:1083C0004FF004000CBF80214FF48071C3E901110C
:1083D0001A611A7598707047034B41F2E4710122DB
:1083E0005A545A70704700BF486D00200378022B22
:1083F00010D0006908B9012070470C4B1B78032B83
:108400000EBF0B4B80B24FF6F773984294BF00201B
:10841000012070470549436841F650028A58B3EB82
:10842000422F2CBF01200020704700BF486D002064
:10843000F7FFFF0F0378022B14D030B4104A4368C3
:10844000006941F6480402F5C2511559096841F620
:108450003C042B4012595B0A023801FB00301044E7
:1084600030BC7047064B426841F6340141F630009B
:108470005958185800EB410000EB5220704700BFDC
:10848000486D002010B40C4A92F8003902EBC30189
:108490000133DBB2042B4FF0050408BF00234FF477
:1084A000045081F8044982F80039C1F808095DF8E0
:1084B000044B4FF0FF307047300F0020202301485D
:1084C0000B807047B4010020642301480B80704783
:1084D000D4010020432301480B807047380200205C
:1084E00010B5084CD4F8F400FF2809D00649D1F89B
:1084F000242901F62811FFF7A7FEFF23C4F8F43062
:10850000002010BD88010020300F0020E8E700BFE8
:1085100008B5D0F8E4355B6A9847002008BD00BF75
:1085200008B5D0F8E4351B6A9847002008BD00BFA5
:10853000D0F8E43510B504461B689847D4F8E83500
:108540009B689847002010BD08B5D0F8E435DB697A
:1085500003B19847002008BD08B5042290F8121115
:10856000D0F8E83580F8131180F81221DB689847BD
:10857000002008BD10B5D0F8E83504461B699847BF
:10858000032384F81231002010BD00BF0B0617D45E
:1085900001EB810300EBC30310B400EB8100012465
:1085A000002283F8764383F8741383F87523426DB1
:1085B0005DF8044B136843F4001300201360704708
:1085C00001F07F0101EB810300EBC303012200EB0B
:1085D000810083F81C1183F81E2183F81D21826914
:1085E0001368002B01DA43F0804343F40013136057
:1085F000002070470B0630B41CD401EB810200EB65
:10860000C202002300EB810582F8741382F87533EF
:1086100001241A4604FA01F16D6D61F31F420169EC
:108620006FF3CF332B60CB6923EA0203002030BC09
:10863000CB61704701F07F0101EB810400EBC404C2
:10864000012200EB8105002384F81C1184F81D2110
:1086500002FA01F11A46AD6961F30F02DFE700BFCC
:1086600010B581210446FFF7C5FF20460121FFF721
:10867000C1FF024B002083F8300910BD300F0020ED
:1086800010B581210446FFF7B5FF20460121FFF711
:10869000B1FF82212046FFF7ADFFFFF71BFE002050
:1086A00010BD00BF38B50D4604468321FFF7A2FF79
:1086B00029462046FFF7E4FF002038BDF0B41646F7
:1086C0000A063AD401EB810500EBC50528240022F7
:1086D00004FB0104022B85F87413C5F87C6385F84C
:1086E000773385F8752304F55D7448D0154600EBA3
:1086F0008107012202FA01F17F6D61F31F45D7F86E
:1087000000C01CF4004F11D1E488204946F080528B
:1087100042F4004242EA834204F00F041C4B42EA56
:10872000845211400CEA0303194339600269D3698A
:108730002B430020F0BCD361704701F07F0101EBB7
:10874000810500EBC5052824012204FB0104022B4E
:1087500085F81C11C5F8246185F81F31A5F8221190
:1087600085F81D2104F58E740CD0002500EB8107DF
:10877000012202FA01F1BF6961F30F05BFE722711F
:108780001546B4E700252571F0E700BFFF87CC133D
:10879000007833EC002310B5194604464022FFF759
:1087A0008DFF8021204600234022FFF787FFD4F869
:1087B000E835A078012284F812215B6898470020F0
:1087C00010BD00BF82B00023016801930B690193C3
:1087D0000E4B03E00A690192013B13D0019A002A73
:1087E000F8DA019A094B42F001020192019A0A61FA
:1087F0000A69019203E00A690192013B02D0019AE1
:10880000D207F8D4002002B0704700BF400D03002B
:10881000436D064A1A61C278012A06D100F2CC5093
:1088200058614FF0802219681A607047180008607C
:1088300010B580210446FFF7A9FE20460021FFF76E
:10884000A5FE2046BDE81040E2E700BF70B44B78BB
:10885000012B24D00B784D6900EB83035A6D14680B
:108860001369D5B18D684D6123F4002305F07F05B0
:1088700023F07F0345F400252B431361C378012BBC
:1088800004BF0B695361C4F3076363F07B0363F3B5
:108890001F641460002070BC70478D68E4E7826933
:1088A0004D691468136915B38E68B5428CBF66F3C1
:1088B000060365F3060343F4002388BF4E6113618A
:1088C000C378012B1DD0C4F3076565F07B0565F304
:1088D0001F641460002BDDD14B69002BDAD00269D4
:1088E0000878516B012383400B435363D2E723F491
:1088F000002323F07F0343F400231361C378012B8B
:10890000E1D10B780D6900EB8300C4F30763816943
:1089100063F07B0363F31F644D610020146070BC3F
:10892000704700BF2DE9F0434A78012A32D00B7816
:108930004A6900EB83035C6D2368266912B38D6876
:108940002A44013AB2FBF5F2C2F3090205FB02F533
:10895000C5F3120562F3DC464D6165F3120626612C
:10896000C278012A04BF0A696261CA78012A47D025
:10897000C3F3076262F07B0262F31F63236000208F
:10898000BDE8F0838A68C2F3120242F4002262F367
:108990001C06E4E791F800804F6900EB880EDEF8D2
:1089A00018C0DCF80030DCF8106077B3D1F808901C
:1089B000384C07EB0905013DB5FBF9F504EAC5455F
:1089C000C7F312042C43CD7806F060463443012DE2
:1089D00026464AD0CCF81040C478012C56D0016904
:1089E000486B02FA08F202434A63C3F3076262F07B
:1089F0007B0262F31F63CCF800300020BDE8F083F7
:108A00004A797AB343F00053B2E706F0604646F481
:108A10000026CD78CCF81060C278012A30D0012D24
:108A2000E3D100698068C00554BF43F0005343F0B0
:108A30008053C3F3076060F07B0060F31F63CCF8E2
:108A40000030002A9BD1B8B203308010DEF8D0404D
:108A500095D0C9681346013351F8042B226098421F
:108A6000F9D18CE743F0805382E765F35E76CCF86A
:108A70001060C278012AD4D10C69CCF81440D0E738
:108A80000C69CCF81440012DAFD1CAE70A69CCF8C3
:108A90001420AAE70000F81F38B501EB810400EBB1
:108AA000C4040D46002184F87453C4F88C1384F870
:108AB0007513C4F88833C4F88023C3782821012BA8
:108AC00001FB050108BFEDB201F55D7108BFC4F8F7
:108AD00084231DB9FFF7BAFE002038BDFFF722FF3F
:108AE000002038BD70B5104BD3F83C2993F8545989
:108AF00004461AB193F840392B430DD0812120460A
:108B0000FFF744FD022D00D070BD2046074ABDE8A6
:108B100070401F230121BFE70121FFF737FD2046E9
:108B20008121BDE8704031E5300F0020641800203D
:108B300010B501EB8101084A00EBC1010446B1F810
:108B40008C131046FFF756FB034A204640230121B1
:108B5000FFF7A2FF002010BD88180020E8E700BF43
:108B600010B50223044640228121FFF7A7FD2046CD
:108B7000022340220121FFF7A1FD82212046032389
:108B80000822FFF79BFD064B02229A83FFF7AAFB00
:108B9000044A204640230121FFF77EFF002010BD3C
:108BA000880100208818002038B509220D460446A7
:108BB00003238321FFF782FD29462046FFF7D0FFDC
:108BC000002038BD82B000230193019A094B42F086
:108BD00010020192C168019A0A610A69019203E0D8
:108BE0000A690192013B02D0019AD206F8D4002012
:108BF00002B07047400D030082B000230193019A38
:108C00000B4B42F020020192019A61F38A12019209
:108C1000C168019A0A610A69019203E00A69019236
:108C2000013B02D0019A9206F8D4002002B07047AE
:108C3000400D030070B50446144EFFF711FD2046A9
:108C4000022340228121FFF739FD402201212046E5
:108C50000223FFF733FDD6F8983900251B6886F804
:108C60003059284686F8545998472046FFF7AAFFFE
:108C700020460121FFF7C0FF204606F634121F23CD
:108C80000121FFF709FF284670BD00BF300F00200B
:108C90000E4BDA68D20310D4DA68D1060FD4DA6842
:108CA000D20510D4DA6812F0E00F0AD1DB6813F0B5
:108CB000020F14BF082009207047012070470620CA
:108CC0007047072070470220704700BF003C0240F9
:108CD00030B4054C0D46134601462A46D4F8BC0074
:108CE00030BC3EF07BB900BF300F00202DE9F84FBB
:108CF000574B984210D003F568530833984268D018
:108D0000544B0020A3F8F409A3F8000AC3F8F809AB
:108D1000C3F8FC09BDE8F88F4E4C4F4E02224FF0CD
:108D2000000BC4F89C2904F51A65D9464FF4007A63
:108D30004FF48078D6F8F82001275A455946BB44AD
:108D400003D0D4F8100A36F099FA94F8142A85F86A
:108D50002420D4F8100AA5F804A04FF000724FF4B4
:108D60008031A960EA60A5F8108085F81290A5F816
:108D700006802F762862B72136F076FCD4F89C293D
:108D8000364B6F76934545F8283BD3DB84F8029A3F
:108D9000D4F89C19B4F8A429D4F8AC39D4F8A809AB
:108DA000B4F8B059C4F8183A12FB01F203FB01F30E
:108DB000A4F8F429B4F8A619294AC4F8F809C4F8A3
:108DC000FC39A4F8005AA4F8F619C4F8F0290120D7
:108DD000A0E7204C204E0223C4F89C3904F51A6504
:108DE0004FF0000B4FF4806A4FF040094FF40068D9
:108DF000D6F8F82001275A455946BB4403D0D4F889
:108E0000100A36F03BFAD4F8101A94F8142A2962A2
:108E100085F824204FF400314FF00062C5E90212BA
:108E2000A5F804A0A5F81090A5F80680AF74FFF788
:108E300047F928466F7636F069FBD4F89C29094B30
:108E400045F8283B9345D3DB84F8027AA0E700BFBE
:108E50001971EF00300F00208801002098B304083A
:108E6000F0B30408C4B30408F8B51A4C94F81C3ADB
:108E7000002BFBD159B301444E1E451ED4F8DC280B
:108E8000D4F8D81815F8017F531CC3F30A038B429A
:108E90002CBF4FF400600020C91A2244014401296C
:108EA000C4F8DC3882F8207A0FD101202AF07EFA4B
:108EB000D4F8D838D4F8DC188B4294BF4FF4006251
:108EC00000225B1A1344012BEFD0B542D6D100200B
:108ED000F8BD00BF300F00200A4B0846D3F8F81841
:108EE00010B569B1D3F8F838052B09D1064C002A22
:108EF000D4F8283104DD1146FFF7B6FFD4F8283145
:108F000010BD00BF300F00202820002010B590F8C1
:108F10005010002380F8503089B10C4CD4F8F82858
:108F20007AB1D4F8F828052A0DD1094C3C30D4F890
:108F30002831FFF799FFD4F82831012010BD012016
:108F4000FCE71046FAE71846F8E700BF300F0020AC
:108F500028200020002280F85120D7E790F85020E8
:108F6000531C0244DBB280F8503082F83C1090F879
:108F700051200AB1132B00D9C8E77047024B0146B4
:108F8000D3F8BC003EF006B9300F002010B5104CED
:108F90000023FF20C4F88030FFF7F0FFFD20FFF72B
:108FA000EDFFFF20FFF7EAFFFF2808D1FFF7E6FFFC
:108FB000FF2804D1042384F88430022010BD054A20
:108FC0000923D2F82821626784F88430002010BD7C
:108FD000300F00202820002070B505460E460924D9
:108FE000FF20FFF7CBFFFF2803D1013CF8D1012080
:108FF00070BDFE2801D0022070BD324629460020F7
:10900000FFF766FEFF20FFF7B9FFFF20FFF7B6FF6F
:10901000002070BD70B582B040F040060C0E0546D1
:109020000A0A080C95238DF801408DF804108DF87C
:1090300000608DF802008DF803208DF805300824BB
:10904000FF20FFF79BFFFF2802D0013CF8D165B954
:10905000062200216846FFF73BFE0924FF20FFF7A8
:109060008DFFFF2802D1013CF8D1FF2002B070BD76
:1090700010B50D4C94F8CD200023C4F8803012B107
:109080000A4AC2F82C313BF009FF20B1042384F8CE
:109090008430022010BD054A0923D2F828216267D6
:1090A00084F8843010BD00BF300F0020282000203D
:1090B00070B50D4D95F88430042B04460E460AD049
:1090C000082B06D1EB6F83420CD0FFF7D1FF0228AB
:1090D00001D0012070BD0823C5E91F4685F8843002
:1090E000022070BD022070BD300F00202DE9F0413C
:1090F0004379444D002B14BF0122002285F8B02093
:1091000003D185F88430BDE8F08190F8018008F142
:10911000FF3676B2044630460F462CF0EFFC0223B1
:10912000C5F8BC0085F8B83023784BBBE478002C38
:109130003ED14FF48071D5F8BC00C5F8C0403DF079
:1091400075FD4FF47A702AF031F9D5F8C0002E4C35
:109150002AF094FB002108460A22FFF7B9FD01E03E
:10916000013C31D0D5F8BC003EF00CF80028F7D116
:10917000264B85F87800D3F828316B670123C0E7C8
:1091800006EB86063E44414696F9032000202CF06B
:1091900079FA064630B140682CF0D0FBB36885F808
:1091A000CE30C8B9002385F8C430E478002CC0D094
:1091B00020462AF021FA044608B11E23C380092163
:1091C00020462AF0DDFAB4E795F8783085F8844037
:1091D000013385F8783096E70D4A431E02EB4311C0
:1091E000FC3291F8146102EB4313C5F8C830002E2D
:1091F000D8D11723A1F814313CF068FF012385F87A
:10920000C43093E7300F0020A18601002820002001
:109210008801002010B5084CD4F8BC003DF0B2FF26
:109220000028F9D10A202AF0B5F8D4F8C000BDE82A
:1092300010402AF023BB00BF300F00202DE9F84377
:109240001A4C94F88460042E0546894690461F46C1
:1092500008D0082E02D00020BDE8F883FFF796FE64
:109260000228F8D1D4F8C0002AF002FB94F87A3032
:109270009BB969021120FFF7CDFEA0B90C4BC4F8D1
:109280006090D3F8282165660523C4E91B876267CF
:1092900084F884300120BDE8F88329461120FFF7C7
:1092A000B9FE0028EAD0FFF7B5FFD4E7300F002061
:1092B000282000200E4B30B4DB68427801780D4C3A
:1092C000DB43C3F30223C3F10403DBB202FA03F36B
:1092D00060181B0101F01F050122490903F0F0038A
:1092E000AA4080F8003344F8212030BC704700BF0A
:1092F00000ED00E000E100E000F01F024009012362
:10930000032803FA02F304D004280CD0022805D065
:109310007047074A116C0B4313647047044A516C41
:109320000B4353647047024A116B0B43136370473E
:109330000038024058B183884FF00042B3FA83F3FB
:1093400032FA03F303D002490A6813430B607047F3
:10935000003C0140B0B10C49D1F83031102B03D1A1
:10936000052100202BF0C2BF03EB43020A4482F820
:109370003401202082F835010120034482F83601AF
:10938000C1F83031704700BF28200020C078E1E7E5
:109390002DE9F84F2E4F00EBC00407EB8404D4F8FE
:1093A00068612EB1054694F8790100F0FF0820B1FC
:1093B0004FF000084046BDE8F88F89469A4693462C
:1093C00029F090FF4FEA49010123C9B284F87A11CC
:1093D00084F87BB184F87D3184F87E8184F87C3117
:1093E00084F8793184F87881B288C4F880A1910535
:1093F0008146C4F884A11DD43388DA0510D442F222
:109400000F7405E029F06EFFA0EB0903A34215DC01
:1094100033889B05F6D433889BB243F48073338042
:10942000B3889BB243F440734FF00108B3804046C9
:10943000BDE8F88F98464046BDE8F88FB7F8D031C0
:1094400001339BB22846A7F8D0313EF0D3F8B1E7FC
:10945000282000200128B5EEC00A10D0F1EE10FA45
:1094600001DC002070479FED167ADFED167AE0EE02
:10947000077AFCEEE77A17EE903A98B27047F1EE71
:1094800010FA10DCEDD5F7EE007A30EE270A9FEDEA
:109490000E7ADFED0E7AE0EE077AFCEEE77A17EE51
:1094A000903A98B270479FED0A7ADFED0A7AE0EEC3
:1094B000077AFCEEE77A17EE903A98B2704700BF51
:1094C00000E0F9440000404200C079C400E082445A
:1094D00000C079440000834470B5464E96F8D241EE
:1094E00004EB840306EB8303A50093F8D431032B2C
:1094F0006ED8DFE803F059291E02254406EB8505E6
:10950000D5F8D801002870D196F824329C425FD05B
:10951000013404F00302934286F8D22158D002EBC2
:10952000820406EB84040223C4F8D80184F8D43101
:1095300070BD2B1906EB8303D3F8D82172B1013A21
:10954000C3F8D821002070BD2B1906EB8303D3F894
:10955000D821002AF3D1022283F8D421254406EB36
:10956000850595F8E031013BDBB285F8E0318BBB36
:10957000214B96F82462D3F8FC12D5F8DC01621C6A
:1095800002F003024B1E0324B242034485F8D44187
:10959000B3FBF1F0C5F8D8011AD0994218D80138B8
:1095A000C5F8D801012070BD2CF082FB80B1124BB0
:1095B0002C44D3F8FC2206EB8404012102F51C5351
:1095C00084F8D4110F33B3FBF2F3C4F8D83170BD73
:1095D000012070BD084BD3F8FC22012002F2E733D2
:1095E000B3FBF2F3C5F8D83170BD0138C5F8D80126
:1095F000002070BD28200020880100202DE9F84FB0
:109600003249DFF8D4B091F8251201240229074627
:1096100019461046CBF82C404FF000022C4C1D464A
:1096200018BF7F02FEF7ECFC2A4B63626B02A36259
:10963000E36A40F2FF5943F093034FF400704FF494
:109640008A62E3620121C4F83890A0601020E260D1
:109650003BF016FA012D40F251434E46C4F83890C3
:10966000CA4640F252488EBF4FF0120998464FF05A
:1096700011090A25C4F838A00121A7604846C4F89A
:109680000C803BF0FDF903464FF0000C40F27742AE
:1096900001213720A6632BB900231846CBF82830C8
:1096A000BDE8F88FA663C4F808C0E2603BF0E8F9B3
:1096B000013DA6630028EFD015F0FF05DAD103467F
:1096C000CBF82C50CBF82830BDE8F88F28200020AC
:1096D000002C014000E1F505300F00202DE9F84F86
:1096E0002F49DFF8C49091F825121E4602292D4B10
:1096F00007464FF0010418BF4702012E40F25948B7
:109700001C6398BF4FF48B683B469346474640F234
:10971000FF55B0468CBF4FF0190A4FF0180A0A24C3
:109720001E4640F2FF53C9F838300121C9F80860DD
:109730005046C9F80C703BF0A3F903464FF0000CFB
:1097400040F2774201213720C9F83850A3B9584672
:1097500041460122FEF754FC4646134A134B53621E
:1097600076029662D36A43F09103D3620D4B0021D7
:1097700008469962BDE8F88FC9F83850C9F808C0A2
:10978000C9F80C203BF07CF9013CC9F8385000289E
:10979000DDD014F0FF04C4D1024B1C63BDE8F88F88
:1097A00028200020300F0020002C014000E1F505AA
:1097B00030B4084C94F82852022D13460A4601464C
:1097C00004F50A7002D030BC2CF0C4B930BC2CF0C7
:1097D00033B900BF282000200378022B4FF001028C
:1097E00001D02CF0DDB92CF03FB910B50C4C94F839
:1097F0002832022B12D1D4F830022AF03FF8D4F8E4
:10980000300208B12123C380012129F0B9FFD4F827
:109810002C020821BDE810403DF008BA10BD00BF81
:109820002820002073B50D4E05460C46FF230A463E
:10983000014630468DF807302CF016F901230DF162
:10984000070245F0800130462CF0F6F89DF807003D
:10985000031B5842584102B070BD00BF5022002087
:1098600010B50021094C82B00846C4F868121CF0FB
:1098700079FB074B0193042304F51B700DEB0302E6
:1098800006212CF0C1F802B010BD00BF2820002036
:109890005475C52A70B5461E00F13105344614F8DA
:1098A000011F601E801BFF29C0B201D01CF05AFBB3
:1098B000AC42F4D1A0203AF0B3FA012102201CF00E
:1098C00051FB0E4D40F2E93401E0013C05D042214C
:1098D00028462CF081F80028F7D1622107482CF0A7
:1098E0007BF8132124201CF03DFB252009211CF0CE
:1098F00039FBBDE87040A0203AF092BA94220020D3
:1099000030B5044683B000BF806829F0B1FF4CF247
:10991000050301AA6946ADF80030606803230025FD
:109920008DF802503DF05AFBA06829F0A7FF00BF58
:109930009DF8060003B030BDF0B5C34EC34885B0F6
:109940002422002141F0EDFC96F87972002F39D1E4
:10995000BF4DD5F8F0395BB39B6A4BB3BD48984710
:1099600083682BB30388DFF8E4C2013B9BB26446F3
:10997000664600213078032806F106061BD0013127
:109980000629F7D100222178022904F1060400F00B
:10999000A8800132062AF6D1E96D052908D0481CB5
:1099A00002FB01C2E8650220002193801070518003
:1099B000384605B0F0BD062303FB01514B8F013B38
:1099C0009BB2DFE796F8780206F52073C6F87C3282
:1099D00010B99F4D0027BCE729F00EFE0546C6F8DA
:1099E0008802002800F0EC80837913F0BF0FF0D1DB
:1099F000781E022340B286F880322CF07FF80028CF
:109A0000E7D02023C6F88402EB802846092129F0FC
:109A1000B7FED6F87C328E4D986829F02FFFD6F825
:109A20007C32102158683DF001F98B4BD6F87C222E
:109A3000C5F8102A93E803000123009032208DF826
:109A4000041085F8143A002429F0B0FC052302AA7A
:109A50006946D6F87C028DF80A408DF809402CF052
:109A600015F89DF80A009DF809109DF80B207B4B16
:109A7000000240EA01401043984200F0C18034DC0B
:109A8000A3F5F113984260D04EDD754B984254D047
:109A90000233984267D14FF400724FF48073A5F8F7
:109AA000F429A5F8003AB5F8002AB5F8F4391202FD
:109AB00002FB03F300204FF48071B3F1807FC5F8FF
:109AC000F829C5F8FC3985F8020AA5F8F61900F25C
:109AD00086800124634B85F8094A2746C5F8F0398A
:109AE00037E7062101FB02C25DE75F4B984234DC99
:109AF000053B984237DD5D4B0344032B78D801A228
:109B000052F823F04B9B00083B9B00081B9B00086E
:109B1000979A0008564B984225D14FF48073A5F8C8
:109B2000F439A5F8003ABEE7A3F52203013B9842B9
:109B30005ED0EFDD4F4B984212D180224FF48073FC
:109B4000A5F8F429A5F8003AADE740224FF4807358
:109B5000A5F8F429A5F8003AA5E7474B9842ECD0C0
:109B600001339842D9D00023A5F8F439A5F8003A7A
:109B7000C5F8F839C5F8FC39FFF7B8F8034660BBFB
:109B80009DF80B009DF80A209DF80C10000240EA99
:109B900002403A4A084390423AD0A5F8F439A5F871
:109BA000003AC5F8F839C5F8FC39FFF79FF80746C1
:109BB00098B996F8780229F01FFD2BF0EDFEC8E663
:109BC0007C1E022360B286F880322BF097FF0028BB
:109BD0003FF4FFAEC6F8840217E70127B9E6012378
:109BE000D5F8100A85F8083AB72135F03DFD70E741
:109BF00020224FF48073A5F8F429A5F8003A52E723
:109C00004FF480621023A5F8F429A5F8003A4AE73A
:109C10001B4BC5F8F4394FF4003140234FF000627C
:109C20000127A5F8003AC5F8F819C5F8FC2985F808
:109C3000027AFEF745FA074885F8097A35F066FC9E
:109C4000104BC5F8F03984E628200020680F00206A
:109C5000300F0020201900201CB404081640E0003A
:109C60001720C20098B304081940EF00EABF10FFA4
:109C70001860010017BA20001770EF0021AAEF004A
:109C800000040008C4B3040810B51A4C94F88E02FE
:109C9000C0B9194BC3F8B40083F8B10094F89132FD
:109CA000012B05D0022B21D0D4F894321BB910BD62
:109CB000124BC4F8943212495B68BDE81040A1F120
:109CC0000C00184729F098FC94F890220A49003AB1
:109CD00018BF012281F8B120C1F8B4000028DDD0FE
:109CE0001F22C280202129F04BFDD7E7054BC4F885
:109CF0009432E0E728200020300F0020AC04002040
:109D0000C02200208804002099B10A6B824216D933
:109D1000154BD3F8D422914221D34C3991421ED312
:109D20000B6B9842F9D38B6B9842F6D80B461846CA
:109D300070470D4BD3F8D4120A6B904212D30B68C4
:109D40000BB9F4E70A6B90420B4602D38A6B904240
:109D5000EDD951F84C3F002BF4D118467047002341
:109D6000184670470A46D8E7282000202DE9F0471A
:109D7000CC0143D10346224A43F8082B4FF0FF326F
:109D80004260022418467E26DFF87880D8F8D89200
:109D90002644013E051D49466FF070474FF0010A09
:109DA00008E0A3421CD0631C45F8043C321B1C464F
:109DB0000435CAB10B6BA34202D88B6BA34204D209
:109DC0002046FFF7A1FF014690B10A794B6B002AAC
:109DD000E7D1A34204D0E6D245F8042C631CE5E7A2
:109DE00045F8047C631CE1E7C8F8D812BDE8F087A9
:109DF00045F804AC321B631C4946D8E78026C3E70C
:109E0000F8FFFF0F282000202DE9F04F2DED048BE7
:109E1000C64B93F8E112B3F80823002987B014BFAA
:109E2000022001200190002A00F093824CF2503071
:109E3000824200F23E8107EE902AB8EE677AB3F8CC
:109E40000A23002A00F088824CF25030824200F24D
:109E50008F8207EE902AF8EE677AB3F80C23C7EEEC
:109E6000274A002A00F07E824CF25030824200F2F3
:109E70007C8207EE902AB8EE677AB3F80E33002B97
:109E800000F06D824CF25032934200F2748207EE81
:109E9000903AF8EE677AA64C94F80090CDF81090BE
:109EA000C7EE276AB9F1000F00F09E81F7EE007A45
:109EB000F4EE674AF1EE10FA14BF01230023039376
:109EC000019B9945C0F27282F4EE676AF1EE10FAD6
:109ED00014BF01230023059309B9C4EEA66AE16803
:109EE000944ADFF87C82029100239A4623719C46B3
:109EF00002F1100E02F1110307EE901ADFED8E5AF7
:109F00009FED8E6ADFED8E3A9FED8E3ADFED8E2A61
:109F10009FED8E2A9FED8E1A9FED920ADFED8D1A2E
:109F2000B8EE677AF7EE007AC7EEA40A86EE074A23
:109F300087EEA68A64EEA54A26EEA55A52E004EB07
:109F4000CC1B4CF2503A55458BF8F4054FEACC1037
:109F500000F2DC8007EE905A9FED7F6AF8EE676AA8
:109F600008EB000586EE267A092E85ED017A40F28F
:109F7000D68042F21075AE4200F2338107EE906A4D
:109F8000B8EE677A27EE037A08EB0005092F85ED16
:109F9000047A40F2C780B7F57A7F00F21F8107EE9E
:109FA000907AB8EE677A08EB0005632985ED027AAE
:109FB00040F2A98007EE901AF8EE677AF4EEC47AC0
:109FC000F1EE10FA88BFF0EE447A40440CF1010C37
:109FD000C0ED037A5FFA8CFC4FF0010A724503F181
:109FE000020369D012F8010F0028F7D01D88002D58
:109FF000F4D01E8C002EF1D04845B3F84070B3F871
:10A0000060109CD907EE907AB8EEE77A07EE901AC6
:10A01000F8EEE77A0A2827EE236A67EEA36A00F0D3
:10A02000A380A0F10B07072F00F2E380B9F1000F26
:10A03000D4D0A0F10A0107EE901A4CF25037BD427D
:10A0400098BF07EE105AF8EEE77A98BFB8EE479A35
:10A0500067EEA48A88BFB0EE409A88EE897A04EB56
:10A06000CC104FF0010A80F8F4A54FEACC1008EBB1
:10A070000005092E85ED017A40F2898142F21075C2
:10A08000AE4200F27B8107EE106AF8EE478A26EEB8
:10A09000277A28EE836AB4EEE27AF1EE10FA88BFEE
:10A0A000B0EE627AF2EE048A66EEA77AB4EEE87A4F
:10A0B000D9E09FED2C7AC2E60299BAF1000F1DD0CB
:10A0C00084F804C0BCF1000F18D0244E0027A6F17C
:10A0D0006C05284656ED1C0A16ED1E0A0122243591
:10A0E00034F01AF9AE4201D0E168F2E72379013782
:10A0F0009F4206F1800601DAE168E8E707B0BDECAF
:10A10000048BBDE8F08FF0EE427A5EE7B0EE617A44
:10A1100008EB0005092E85ED017A3FF62AAFB2EE75
:10A12000047A2FE7B2EE047A3DE700BF2820002032
:10A130000800001037230020ABAA264300BADB48F2
:10A140008988883C0AD7233C00007A440000C84232
:10A1500000401C463EC3AE39555585417C06001073
:10A16000FC05001000504347039900293FF436AF27
:10A170004CF25037BD429ABF07EE905AB8EE677A5C
:10A18000B0EE407AC5EE877A04EBCC104FF0010AAE
:10A1900080F8F4A54FEACC1008EB0005092EC5EDB8
:10A1A000017A40F2F78042F21075AE4200F2E98087
:10A1B00007EE906AF8EE677A26EE207AF2EE048ACD
:10A1C000B4EEE27AF1EE10FA88BFB0EE627A27EED2
:10A1D000836AB4EEE87A66EEA07A44E0B0EE627A82
:10A1E000E1E6B0EE417ACDE6CDF80C90CDF81490D2
:10A1F00072E6142850D1059900293FF4EFAE4CF2D5
:10A200005037BD429ABF07EE905AB8EE677AB0EE6B
:10A21000407AC5EE877A04EBCC10019980F8F415EA
:10A220004FEACC1008EB0005092EC5ED017A40F28B
:10A23000B78042F21075AE4200F2B58007EE906A28
:10A24000F8EE677A26EE087AF2EE048AB4EEE27A45
:10A25000F1EE10FA27EE836A88BFB0EE627A66EEFE
:10A26000887AB4EEE87AF1EE10FAF4EEC27A08EBEE
:10A270000005B8BFB0EE687AF1EE10FA85ED046A19
:10A2800085ED027A3FF53FAFF4EEC47AF1EE10FAB5
:10A2900088BFF0EE447A98E6A0F11507072F3FF645
:10A2A0009DAE0199049FB9423FF798AE143807EE6E
:10A2B000900A4CF25037BD4298BF07EE105AF8EEA4
:10A2C000E77A98BFB8EE477A25EE279A88BFB0EEB6
:10A2D000407AC9EE078A04EBCC10092E80F8F415F9
:10A2E0004FEACC1008EB0005C5ED018A4CD942F2CB
:10A2F0001075AE4251D807EE106AB8EE477A26EED6
:10A30000276AF2EE048AB4EEE26AF1EE10FA88BF30
:10A31000B0EE626A66EEA77AB4EEE86AF1EE10FA81
:10A3200027EE037AF4EEC27A08EB0005B8BFB0EE70
:10A33000686AF1EE10FA85ED047A85ED026A3FF560
:10A34000E2AEB4EEE74AF1EE10FA98BFF0EE447ACE
:10A350003BE6B7EE007A72E5F7EE007A7DE5F7EEC0
:10A36000007A98E5B7EE007A87E51FED827A84E5FA
:10A370005FED847A71E55FED857A8CE5F0EE418AD8
:10A3800085E6F0EE417A17E7B2EE047AB7E7F2EE2F
:10A39000048A7CE6F2EE047A0EE7B0EE417AAEE78C
:10A3A000F2EE047A4EE7F0EE417A4BE70122002309
:10A3B000CDE9042390E500BF0C480D4BD0F8B8134D
:10A3C00010B40C4CC0F8A8338A1E2231B0F8D23336
:10A3D0001B01A4FB03C3DB08A3F5B06322F8023F13
:10A3E0009142F3D15DF8044B704700BF2820002054
:10A3F000B18F0108CDCCCCCC70B5084C251D2E46B4
:10A4000014F8010B1FF0DAFA28B1037805F8013BC4
:10A41000B442F5D170BDFF23F8E700BF1824002037
:10A420002DE9F0471D4F012607F10805B2464FF010
:10A430003B094FF0000817F8010B29F0DDF804463E
:10A4400090B180F80690C671FB7803F07F02012A74
:10A4500018D013F0800F20460DD185F8048029F024
:10A4600007FA85F805802C600136052E05F10805F0
:10A47000E1D1BDE8F08785F804A029F0FFF985F85F
:10A4800005A0F0E71B0605D40121204629F078F944
:10A49000FB78DEE729F0F2F9F6E700BF2024002080
:10A4A00070B5044684B04FF4004023F07FFC80B3C5
:10A4B00000234FF4E131032590F904000293CDE924
:10A4C00000151A464FF4004123F0D3FC124BC3F899
:10A4D0002004F0B1012C40F6980208BF4FF49662B8
:10A4E0000E480F4DA3F82C244FF461710D4AC3F8A8
:10A4F00038040A2683F82444C3F82864A3F82E14E9
:10A50000A3F83014C3F83454C3F83C24012004B039
:10A5100070BD0020FBE700BF28200020A9410108F2
:10A5200011170108051701082DE9F041204D95F894
:10A53000633485F85C3405F58C6705F264460024C5
:10A540004FF0050817F8010B20BB30600134032CD5
:10A5500006F10406F6D195F85C14D5F86404C943F5
:10A5600001F0010129F090F995F85C14D5F8680420
:10A5700081F00201C1F3400129F086F995F85C14DD
:10A58000D5F86C0481F00401BDE8F041C1F380010D
:10A5900029F07AB929F030F8013401213060E3B2B2
:10A5A00010B180F80680C371306829F0E9F8CEE771
:10A5B00028200020F0B5284CB4F87454A4F8765440
:10A5C00083B0EDB994F8700429F016F894F871246A
:10A5D000C4F87804003A18BF012284F87C2448B1FA
:10A5E00094F872142B22002914BF11210121C2807A
:10A5F00029F0C6F8002003B0BDE8F04029F04CB9BE
:10A6000094F87074002238462B2128F021FE06466B
:10A61000384628F0F1FFE8B1E6B12B22C4F89404E3
:10A62000C280727A022129F035F800270B4AB2FB6A
:10A63000F5F3C3F34F0000909BB23146019704F548
:10A640009060A4F898541BF0A9FCD4F880341F60E3
:10A6500084F8917403B0F0BD2820002040420F0020
:10A660002DE9F84F254C94F8A43484F89A3404F278
:10A670009B47002604F597645FFA86FB0BF10108FF
:10A680005FFA88F8012117F8010F42460E448A4606
:10A6900028F0DEFD4FF00009054648B3387804F88D
:10A6A0000E9C04F80D9C04F80FBC04F810AC44F8A0
:10A6B000045C28F0A1FF022118B180F806A080F800
:10A6C00007806A7A28F0E6FF0D4A0021284628F024
:10A6D0000DFC0C4B23600C4B221D21462846C4E97F
:10A6E000013928F07BFB697928684A461BF0ECFBAE
:10A6F000082E04F11C04BFD1BDE8F88F28200020EB
:10A7000040420F00015F0208AD13020870B52D4CE6
:10A710002D4B94F8D005C4F8C83500220221C4F8A6
:10A720008825C4F88C25C4F89025C4F8C425A4F85D
:10A73000CC2528F08DFD002836D0244B0668054630
:10A7400003F160015A7C12B15A6896422DD0183339
:10A750008B42F7D1002394F8D005C4F8B45484F8A0
:10A76000A83428F049FF08B10223C3806A7A022185
:10A7700028F090FF2846164A002128F0B7FB154A1A
:10A780001549C4F8B8140026111F2846134BC4F805
:10A79000BC34C4F8C06428F021FB697928683246CB
:10A7A000BDE870401BF090BB70BD30463AF054FEDF
:10A7B000328D0B4992B2531CB0FBF3F081F8480381
:10A7C000C8E700BF2820002000FFFF00FC0D00109C
:10A7D00040420F00E4240020D5130208751502083A
:10A7E0008801002070B5534E96F8CC0396F8CD53EF
:10A7F00028F002FF60B12D23C3802021044628F0F9
:10A80000BFFF0A2028F0C6FD20462AF095FD18B9A2
:10A81000D6F8D435DA0000D570BD013D092DFBD83E
:10A8200096F8CB43CCB9402023F0C0FA0028F3D0EF
:10A8300090F9043096F8A113092BC8BF143B334498
:10A840000A2993F8D84567D093F8E43596F8CA23D7
:10A85000002A08BF1C46002CDED0204628F0CCFE83
:10A86000054608B12D23C3800121284628F088FF22
:10A870000121084629F04EF80121284629F004F864
:10A880003C2028F093FD0021012029F043F896F8A0
:10A89000CD331BB300240021084629F03BF80021EA
:10A8A000022029F037F80021284628F0EDFF782013
:10A8B00028F070FD0121002029F02CF80121022050
:10A8C00029F028F80121284628F0DEFF782028F01A
:10A8D00061FD96F8CD3301349C42DCDB96F8CB3336
:10A8E00093B996F8CC33002B96D196F8CE33012B42
:10A8F00092D1D6F8D43513F080538DD186F8CD336C
:10A90000BDE8704030F00EBD322028F04FFD2846E3
:10A91000002128F035FFE4E7D6F8FC355B057FF52C
:10A920007BAF0BF03BFC00287FF476AF002C94D17A
:10A9300072E700BF2820002030B40438043A0C1F0E
:10A9400001F1080554F8043F52F8041FAC42A3EB90
:10A95000010340F8043FF5D130BC704770B434486F
:10A9600090F80036A3F13001092957D800F5C064EA
:10A97000224600F20F6012F8015FA5F130010929AB
:10A9800004D88242F7D1002070BC7047141B022CFF
:10A990004ADD2848002101E010F8013B01EB81016C
:10A9A00003EB4103161A303B022E044603F0FF016D
:10A9B000F2DC214B03FB01F1A2424FF000030DD961
:10A9C00003EB830314F8016B5B00303B3344A2427A
:10A9D00003F0FF03F4D1194800FB03F32E2D06D03A
:10A9E0001748A0FB032301EB930070BC70470132B2
:10A9F00004200024157804EB8404303D6400092D04
:10AA000000F1FF30A4B202D82C44A4B2013210F0FD
:10AA1000FF00EFD1642202FB0433E1E700211D4671
:10AA200000F5C0620B46D9E7064C0021C4E700BF21
:10AA300028200020292600208096980040420F0000
:10AA4000ABAAAAAA2826002038B504460D460A4615
:10AA50000068FF2140F065FC21682944216038BD71
:10AA600083B50C461646054621F018FD204621F018
:10AA700015FD0021204B0846002E08BF1E4628F079
:10AA800049FF0021012028F045FF284628F004FD59
:10AA9000B0B10121002028F03DFF284628F0F4FC49
:10AAA0000746204628F0F4FC0028FAD03946204614
:10AAB00028F018FD3846B0470021084628F02AFF44
:10AAC000204628F0E9FC0028DFD00121002028F0F2
:10AAD00021FF204628F0D8FC01462846019128F0A5
:10AAE000D7FC01990028F8D0284628F0FBFC00216B
:10AAF000084628F00FFFC8E7299A0208F0B500239E
:10AB00000B604B608B60CB600B610268DFF88CC020
:10AB100089B004ADC2F385572E4647FA03F0C0074B
:10AB2000344604D513F80C0004F8010B2646013313
:10AB3000062BF2D11748C2F303240444002394F8EF
:10AB4000944033708DF8184000F19C0CC2F3053727
:10AB50000DF1190647FA03F0C007344604D513F87F
:10AB60000C0004F8010B26460133062BF2D100231A
:10AB70003370C2F3834406ABCDE90134084602F0DA
:10AB80000F0305490095C2F3031233F09BF909B096
:10AB9000F0BD00BF98B30408A84E050824B404080B
:10ABA00070B5094CD4F81026054662B10026D4F8D9
:10ABB00010062D2101362BF049F8AE42F7DBBDE837
:10ABC00070402FF0DBBA70BD28200020074B4FF4F7
:10ABD0007A7003F114014FF4FA6223F8040C23F89D
:10ABE000022C04338B42F8D1704700BF402600206E
:10ABF00070B5214DD5F8543E93F82620DAB15B6943
:10AC00009847E0B1D5F8543E93F824208AB105F670
:10AC1000586600241A19E0B29B6992F82C10B6EC21
:10AC2000010A9847D5F8543E93F824200134944201
:10AC3000F0DB1B6A984795F8683E332B00D070BD57
:10AC400095F86C3E002BFAD0D5F8543E93F824309A
:10AC5000042B1E46A8BF0426002BF0D00024074D6D
:10AC6000234618463AF086FF0134E3B29E4225F8A7
:10AC7000020BF6D870BD00BF08000010780E00105F
:10AC800038B50F4C94F82F1601F03F018B1C02468B
:10AC900001F10A0584F82D3684F82A5604F5C560BA
:10ACA00084F82B26083114F033FA254485F826065B
:10ACB00094F82A361C44000A84F8270638BD00BFE1
:10ACC0002820002070B51D4C0968D4F854561C4E3D
:10ACD000D4F85046D6EDD37ADFED1A6A491B00EE60
:10ACE000901A0168F8EEE00A091B60EEA70A00EE70
:10ACF000101A20EEA07AB8EEC00A1C46A0EE007A28
:10AD0000B1EE400AF1EEC77A67EEA67AFCEEE77A7A
:10AD1000C2ED007A33F070FA9FED0B7ADFED0B7A1B
:10AD2000E0EE077AFDEEE77A17EE902A002ABCBF24
:10AD300002F50C42A032226070BD00BF2820002026
:10AD4000880100202C7D8E3FA00CB34500A00C464E
:10AD500038B50B4C002501228021204623F012F843
:10AD600030B194F9040023F043F808B1006838BD0D
:10AD70000135092D04F10C04EDD10020F7E700BFE7
:10AD8000902600202DE9F84FA44C94F8A50FD4F894
:10AD90007C8E04F678632DED048B93ED008A0028F9
:10ADA00040F0B880D4F8B02F94F8A41F94F8C13FB5
:10ADB000002A19DD07EE902ADFED996AF8EEE77AAE
:10ADC000C3F1640386EEA77A00EE103AB8EEC00A2B
:10ADD00020EE070A29B920EE000ADFED927A20EE74
:10ADE000270A3EF0CFFA80B2B4F8A63FA4F8A60F27
:10ADF000834200F08F8094F8807E8B4E9FED8B9A7B
:10AE0000DFED8B8A002594F8C43F2B41DB0714D576
:10AE100094F8A43F002B54D1B4F8A63F07EE103AA3
:10AE20000FB986ED019AB8EE477AC8EE877A77EEC9
:10AE3000887A88EE277A86ED027A0135052D06F1AB
:10AE40002406E0D194F8A95FB4F8AC6F1DB194F872
:10AE5000AA3F002B6DD087BB7EB3734EDFED748AA3
:10AE6000012D4FF0000906F16C0713D0022D06F1F9
:10AE7000B800414607D1B4F8AC3F00EE103AB8EE46
:10AE8000400A33F0F5FA2436B74216D094F8A95F99
:10AE9000012DEBD1B4F8AC3FC6F8B89007EE103AEC
:10AEA000B8EE477A2436C8EE877A77EE887A88EE4D
:10AEB000277A86ED267AB742E8D1BDEC048BBDE84F
:10AEC000F88FB4F8A63F414600EE103A301D37B96E
:10AED000B8EE400A33F0CCFA94F8807EADE7D6EDB8
:10AEE000069AD6F81CB0D6F820A0D6F82490B8EE72
:10AEF000400A0322F0EE490A301D33F00DFA94F8AF
:10AF0000807EC6ED069AC6F81CB0C6F820A0C6F82A
:10AF1000249092E794F8807E002F3FF46EAF94F86F
:10AF2000A95FB4F8AC6F002DC7D094F8AA3F002BEE
:10AF3000C3D1D4F8B02F94F8C13F002A62DD07EEE8
:10AF4000902ADFED376AF8EEE77AC3F1640386EE04
:10AF5000A77A012D00EE103AB8EEC00A27EE000ADB
:10AF600005D120EE000ADFED2F7A20EE270A3EF011
:10AF700009FA80B2A4F8AC0F002F4AD0B0429CD09E
:10AF800000289AD0284E9FED2A9ADFED288A012DBD
:10AF900006F16C0727D0022D1DD1B4F8AC3FD6F8CE
:10AFA000CCB0D6F8D0A0D6F8D490D6F8D85000EED1
:10AFB000103A0322B8EE400AF0EE680A414606F164
:10AFC000B80033F0A9F9C6F8CCB0C6F8D0A0C6F8DE
:10AFD000D490C6F8D8502436B7423FF46EAF94F8F8
:10AFE000A95F012DD7D1B4F8AC3F07EE103AB8EE07
:10AFF000477AC9EE077A77EE887A88EE277A86ED67
:10B000002F7AE8E7BDEC048B0023A4F8AC3FBDE841
:10B01000F88F0646002E3FF450AF1EE708000010E0
:10B0200000409C45CDCC4C3C880E00100000000038
:10B0300083F9223EF8B5214C1D270E46054684F8BB
:10B04000D87614F08BF9002014F02AF9082014F0B7
:10B0500027F90E2014F024F9384614F021F90420C1
:10B0600014F01EF9042014F01BF9002014F018F954
:10B07000302014F015F9002014F012F9304614F0C5
:10B080000FF9002014F00CF914F054F904F2D9600F
:10B0900014F05AF8234670B194F8D92662B994F89E
:10B0A000DA26302A00D03AB993F8DB2622B993F891
:10B0B000DC362B700120F8BD0120FCE728200020A1
:10B0C0001D4991F80026A2B3F0B400260546334688
:10B0D000304637461BB991F800462D2C23D02E2A36
:10B0E00019D0CA1800EB800092F80046A4F1300293
:10B0F000092A4FEA40009CBFA0F13002A0180E2B95
:10B1000014D80133CA1892F80026002AE2D106B1F9
:10B110004042F0BC70470133002DF8D0CA182A44D1
:10B1200082F80076DDE701231E46EBE70020F0BC45
:10B1300070470020704700BF2820002010B51C2059
:10B1400028F05AFA1121044628F01AFB204628F06C
:10B150008FFBC82028F02AF92046BDE8104028F0CF
:10B160008DBB00BF08B5002028F046FA054BC3F898
:10B17000EC0608B12A23C380BDE80840402128F02E
:10B18000FFBA00BF28200020704700BF704700BFF3
:10B19000704700BF704700BF2DE9F0414FF0FF3509
:10B1A000324A33482C46002304E001330B2B02F1D2
:10B1B000100215D0917A0429F7D103F5B17100EB93
:10B1C0000111C979CF07F0D4661C116801D0A942DA
:10B1D000EBD21C4601330B2B0D4602F11002E9D1D4
:10B1E000631C02D10120BDE8F081214D04F5B17747
:10B1F00005EB07139988F1B9DFF880802601AB19B8
:10B20000D8F894221B4916691B4A41F2186001EBD9
:10B21000442118580023B047D0B1022808D141F288
:10B22000CC6205EB0717AB58013B0121AB50B9715C
:10B230000020BDE8F081DFF8448005EB0413D8F866
:10B24000942241F21860D268185826019047D6E738
:10B2500041F2CC6205EB0717AB580321B97141F2FB
:10B26000D061013B0124AB506C54BCE764830020E7
:10B27000486D0020606D002099B200082820002051
:10B28000044B41F2E472995C09B9012199540122FD
:10B290005A707047486D002038B5174D174B41F272
:10B2A000D0640020285504E001300B2803F110037E
:10B2B00014D053F80E4C8C42F6D11C78032CF3D1E9
:10B2C0006AB10F4B03EB40239A4201D0FFF7D8FF3E
:10B2D00000F5B17005EB00100123837138BD41F218
:10B2E000CC6100F5B1736A5805EB031304200132F9
:10B2F00098716A5038BD00BF486D00206E830020F1
:10B30000606D002038B5134B00209C7B14B11D6884
:10B310008D4205D001300B2803F11003F5D138BD63
:10B3200072B10D4B03EB40239A4210D0FFF7A8FFF8
:10B330000A4B00F5B17003EB00100123837138BD97
:10B34000064B00F5B17003EB0010827138BD022C82
:10B35000ECD1EDE760830020606D0020486D002097
:10B360002DE9F84F12F0020E9B4606D028B9FFF7E0
:10B3700087FF02252846BDE8F88F804C41F6380546
:10B380006559002D5BD14FF0FF367D4FB146B04679
:10B39000B24600253B68984200F0B68097F80EC090
:10B3A000BCF1000F5BD0BCF1010F15D105F5B17CEC
:10B3B00004EB0C1C9CF807C01CF0010F0CD11CF016
:10B3C0007E0F09D15FEADC1340F0A880D7F808C0EF
:10B3D000D44501D2E246A94601350B2D07F11007ED
:10B3E000D8D1751C04D1B8F1FF3F00F09F804646CC
:10B3F00041F2C86806F5B17754F80850013544F8B1
:10B40000085004EB061C41F21C694FEA07184CF87F
:10B41000095044F8085041F2186904EB07154FF041
:10B4200000084CF80900C5F8048004EB0715AD7955
:10B43000042D9CD8DFE805F01A330F334D0004F5D6
:10B44000C25741F63C063F68A65907FB0565A8426E
:10B4500099D3FFF715FF00252846BDE8F88F2E4643
:10B4600001350B2D07F1100794D1BAE712F0010C4A
:10B4700070D104EB0710D51090F80780BBF1030FD3
:10B4800065F3C71880F8078062D94FF6FF708345CF
:10B490005B4628BF03469BB204EB07108380BEF1D6
:10B4A000000F16D004EB061303F5B0531833987B46
:10B4B00004280ED041F2C8654FF0040C60590130E9
:10B4C000605141F2CC65586083F80EC06359013376
:10B4D0006351500705D504EB0710C37943F001030E
:10B4E000C371D30608D504EB0714E379C3F345020F
:10B4F000013262F34603E371224B012503EB46263A
:10B500000E602846BDE8F88F05F5B17704EB071605
:10B510004FEA071CB67986B92E4669E7A846013579
:10B520000B2D07F110077FF435AF5AE7B9F1FF3F54
:10B5300018BF4E467FF45CAF8DE741F2C8682E46D7
:10B5400054F80850013544F8085044F80C506CE7A2
:10B550006346A1E70C4B0B49D3F894320B4AD3F85E
:10B56000088001EB46210023C04700283FF473AF59
:10B5700004EB07140223A371FCE600BF486D002012
:10B5800060830020606D00202820002005B30008A3
:10B59000F0B5124D2B7841F63002022B0BBF070A93
:10B5A000C0F3D417C4B200F07F04A85883B00E468D
:10B5B00000230122384401A9FFF7D2FE01280AD155
:10B5C0002B78022B019B16BF53F8243033F814302C
:10B5D00023F07043336003B0F0BD00BF486D00201E
:10B5E00010B5144602070B4610D50B4941F2C47240
:10B5F000581C8B58834204D305D1002323600120BB
:10B6000010BDFFF73DFE2060012010BD2146184609
:10B61000BDE81040BCE700BF486D00202DE9F041B7
:10B620004268C2F308030B44B3F5007F82B00446BE
:10B630000D4657D390F91A30591C0AD0304A03F5F9
:10B64000B17302EB0313FF21DA796FF30002DA71B1
:10B65000817694F91B305A1C0FD0294A03F5B17337
:10B6600002EB0313FF20DA79C2F34501013921EA25
:10B67000E17161F34602DA71E0762378022B37D06C
:10B680001F4A02F5C2531B68B5EB432F4FEA43280C
:10B6900024DC41F648036768D6583E407342AB420B
:10B6A0001CDCAB19434511D32169207E01AAFFF7A9
:10B6B00097FF012812D16768236963614744019BA2
:10B6C0002361A5EB0801BF1B67608D192046FCF7BD
:10B6D0008DFE20B93D446560012000E0002002B0ED
:10B6E000BDE8F08115444560012002B0BDE8F0815D
:10B6F000616801202944616002B0BDE8F08100BFAB
:10B70000486D002070B5154604460E46FFF786FFCB
:10B7100050B994F8280028B9022384F82830C4E9E5
:10B720000B5670BD022070BD1DB12046A8470120F8
:10B7300070BD012070BD00BF10B4D0E9011390F9B5
:10B740001A208B4238BF0B46511C83600AD0144B21
:10B7500002F5B17203EB0212FF21D3796FF30003FC
:10B76000D371817690F91B305A1C0FD00C4A03F527
:10B77000B17302EB0313FF24DA79C2F345010139F7
:10B7800021EAE17161F34602DA71C4760022436A6C
:10B790005DF8044B4261426011460361B2E700BFAD
:10B7A000486D002038B54422002111483FF0B9FD12
:10B7B000104B41F602011A784FF6FF745C52022AD0
:10B7C00041F2E87118BF032203F5C05041F64C0561
:10B7D0005A5441F60C0441F6010203215D5900F868
:10B7E000181910211D519954FFF7A6FF012038BDEB
:10B7F00030850020486D00202DE9F041B1F904307A
:10B800000F2B82B00C461646054632D02846FCF770
:10B8100011FE95F91B80B8F1FF3F074633D02D4B41
:10B8200041F2186203EB08118A58904211D1183383
:10B8300003EB4823A188013109B203EB4113A18036
:10B8400028463360FCF7F6FD2060012002B0BDE819
:10B85000F081FFF715FD2846FCF7C8FD28B100234D
:10B860000120336002B0BDE8F081002002B0BDE8E5
:10B87000F0814FF40071FFF7D1FE0028F5D04FF6AC
:10B88000FF73A380C2E72846FCF7B0FD0028E2D191
:10B890000FB9FFF7F5FC38460023112201A9FFF785
:10B8A0005FFD0128D7D1019B0B4A9A1A48BF02F2CB
:10B8B000FF12B2F5B05F4FEA622106D24FFA81F86B
:10B8C00085F81B80002BB5D1C5E7FFF7D9FC019B9C
:10B8D000F6E700BF486D0020606D002030B50446DB
:10B8E000C06983B010B9012003B030BD0D460023FC
:10B8F000032201A9FFF734FD0128F5D1B4F9203066
:10B90000002B03DAFFF7BCFC0220EDE7019A012DC2
:10B910004FEA431102EB431303D0022D12D1E52568
:10B920005554A268DA612278032A04D100221A77DA
:10B930005A779A77DA77626A5A83C2F30F429A8209
:10B9400003B030BDE268DA61EDE700BF10B50378FF
:10B95000023B012B0446037E02D913F0060F5AD195
:10B9600098063AD494F91A30591C0AD02D4A03F596
:10B97000B17302EB0313FF21DA796FF30002DA717E
:10B98000A17694F91B305A1C0FD0264A03F5B173E7
:10B9900002EB0313FF20DA79C2F34501013921EAF2
:10B9A000E17161F34602DA71E076237E1B070BD565
:10B9B0001C4841F2C873C35C072B01D0FFF760FC41
:10B9C00041F2C8730022C254E26A0023237084F853
:10B9D0002830FAB1BDE81040104700231249E06951
:10B9E0001A018A58904206D001330B2BBAD01A01A3
:10B9F0008A589042F8D10B4A03F5B17302EB031356
:10BA0000DA79C2F34501013921EAE17161F34602B5
:10BA1000DA71A7E710BD0121FFF760FF0128F9D116
:10BA2000237E9DE7486D00206083002030B10278BE
:10BA300022B190F828201AB10020704701207047E9
:10BA400010B5D0E90142A242C16238BF22460321AB
:10BA5000826080F82810FFF779FF012010BD00BF39
:10BA60002DE9F04FDFF868918A4699F80010DAF86E
:10BA700000300229174683B0834641F6300240F079
:10BA80008B8059F80250DEB2A6EB030805EB1325B4
:10BA9000B8444FF480729044BB4208F1FF38B8FBC1
:10BAA000F2F875D2A844032906EB0704A4EB0304BB
:10BAB0000CBF80224FF48072944228BF1446A8EB3A
:10BAC000050366B994422CBF0A220B2201A928461D
:10BAD000FFF746FC012809D003B0BDE8F08F0B2228
:10BAE00001A92846FFF73CFC0128F5D199F8002070
:10BAF000DAF80010022A01F1010321D0A64210D287
:10BB0000019906F18042013A081F00EB840001EB25
:10BB1000820242F8043F824203F10103F9D1DAF8CC
:10BB20000010A61B7318BBF1010FCAF800301BD020
:10BB30009F4205F101052BD999F800100026B2E7C4
:10BB4000A642EED2DDF804C006F10042013AACF1A3
:10BB5000020000EB44000CEB420222F8023F90424C
:10BB600003F10103F9D1DCE7BB42E1D199F80030E0
:10BB7000022B21D004F18044019B013C4FF0FF32A5
:10BB800043F82420DAF800309F4205F10105D3D8AC
:10BB9000012003B0BDE8F08F59F8022003F07F06C2
:10BBA0000329C3F3D415A6EB03081544B84414BF06
:10BBB0004FF4807280226EE704F10044019B013C47
:10BBC0004FF6FF72584623F8142003B0BDE8F08FFB
:10BBD000486D00202DE9F04190F838300446032BE1
:10BBE00051D8DFE803F002323B462D4BC06819788C
:10BBF000E76A03F5C252032911680CBF80264FF48F
:10BC0000807601FB06F141F2C47C00EB412041F259
:10BC1000A87841F2AC7E53F80C20E06053F80E0097
:10BC200053F808502261A5EB4125A0EB4121901962
:10BC300043F8085043F80E1043F80C00C4E90C20F8
:10BC40005FBB6262012384F8383016480021FFF799
:10BC500045FE012811D1022384F83830626B04F1CB
:10BC600030010120FFF7FCFE012806D1032384F8F0
:10BC7000383000212046FFF731FE431EDBB2012B96
:10BC800002D9BDE8F081022094F82830062B04BFC9
:10BC9000002384F82830BDE8F081921B2263D1E7AD
:10BCA000486D0020E88400202DE9F04FDFF8248162
:10BCB00098F80060012887B08CBF00230123032E71
:10BCC00002930C460B68154639D0022E62D14FF410
:10BCD00080724FEA1329DFB201920138012823D87C
:10BCE000012203929D421AD9384E06F1880A06F1C4
:10BCF0001C0B32681AB1DBF8001099424ED0DAF80A
:10BD0000000000234844092205A9FFF729FB012868
:10BD10001FD002280FD020B123689D42E9D82560AA
:10BD2000032007B0BDE8F08F87B1FFF7A9FA022022
:10BD300007B0BDE8F08F022007B0BDE8F08F802289
:10BD40000192C3F3D41903F07F07C6E7019A039267
:10BD5000C8E7DDE902C1059ADDF804E098F8003093
:10BD6000022B14D0032BE6D152F8273023F0704376
:10BD7000B3FA83F35B0963450F44236823D00B4474
:10BD800077452360EAD309F101090027C5E732F8B6
:10BD90001730EDE74FF480720192D2E70C49096841
:10BDA000013A02EB41224902B2FBF1F2039913443A
:10BDB000B3FBF1F201FB12320AB10B449B1A9D4214
:10BDC000236096D8ABE7AB42ABD3A8E7F084002062
:10BDD00088850020486D0020F0B5104D2B7841F685
:10BDE0003002022B0BBF070AC0F3D417C4B200F015
:10BDF0007F04A85883B00E4600230322384401A9CB
:10BE0000FFF7AEFA012807D12B78022B019B0CBF5C
:10BE100023F8146043F8246003B0F0BD486D00209F
:10BE20002DE9F04390F83C30002983B0044614BF5C
:10BE300002210021042B7BD8DFE803F0030C3C47F0
:10BE40006900FFF74BFD012870D1626B002A75D1A4
:10BE500084F83C00404EDFF80881404D4FF6F777FC
:10BE60001DE01FFA80F9B94594BF4FF000094FF06B
:10BE7000010901A9B9F1000F46D1FFF789FB01289B
:10BE8000494650D1206BFFF7A7FF01284BD1019BFA
:10BE90002A682363013B934228BF13462B60337803
:10BEA000206B032BDDD1404594BF4FF000094FF0CC
:10BEB0000109DEE7426B04F130010020FFF7D0FDFD
:10BEC000012833D1032384F83C30234BE16A41F24B
:10BED000C47003F5C2521D581268195041F2A87778
:10BEE00041F2AC76D8596D1A995902FB05F200EB74
:10BEF000422501EB422203F5BD500021DD519A514C
:10BF0000FFF7ECFC012811D1042384F83C3094F8AD
:10BF10002830042B04BF002384F82830A36B8BB196
:10BF200020469847012003B0BDE8F0830228FAD1EB
:10BF300094F82830042B09D00220F4E7022384F877
:10BF40003C30B8E7012003B0BDE8F083002384F85B
:10BF500028300220E7E700BF486D00208C850020D4
:10BF6000F7FFFF0F38B590F834300446052B46D85C
:10BF7000DFE803F01F033F101963006B4FF0FF3140
:10BF8000FFF72AFF01283AD1E06A002839D10323BC
:10BF900084F8343000212046FFF7A0FC01282ED180
:10BFA000042384F8343094F82830082B2DD0012055
:10BFB00038BD41F63803224DEA5800F13001023213
:10BFC0000120FFF771FE012824D00238C0B20128F9
:10BFD00015D8052384F8343094F82830082B04BF92
:10BFE000002384F8283041F2E5730122EA5402204C
:10BFF00038BDC06A216BFFF7EFFE0128C7D00020D3
:10C0000038BD022384F83430F4E7002384F8283064
:10C01000012038BD05F5C252E3681168D4E90B2050
:10C0200003EB412341F644016850C4E9033002B9EF
:10C030006062012384F83430A0E7014DCCE700BFF3
:10C04000486D00202DE9F04F436883B0C3F3080822
:10C050001646002A00F0E180714B05468946A3F19F
:10C06000180B4FF0000AC8F5007495F91A70B44225
:10C0700028BF3446791C28462ED0FCF7DBF90BEBA1
:10C08000071341F218629B58984205D0FFF7F8F861
:10C09000504603B0BDE8F08F614B03EB47202246CA
:10C0A000494640443FF0DCF8002221462846FFF78D
:10C0B00029FBA2440028EBD02B7E1B0706D5594B49
:10C0C0002A691B689A4201D3FFF7DAF8361BA144AC
:10C0D0004FF00008C7D1DBE7FCF788F9002849D109
:10C0E0002846FCF7A7F96968C1F308032BBB21F4C4
:10C0F000FF7323F0010303F50072AB689A422CBF73
:10C10000062207222B7E03F00C030C2B1CD00023ED
:10C1100001A9FFF725F90128BAD10198404BC31AAC
:10C1200048BF03F2FF13B3F5B05F4FEA63224FD26B
:10C1300057B2AF760028B2D1AAE72B7E03F00C03EA
:10C140000C2B4FF00702E2D19BF800C0364BBCF13C
:10C15000030F1B680CBF4FF0800C4FF4807C03FB77
:10C160000CF34FEA432C0CF1FF3C0CEA0101A3EB6A
:10C170005123CDE72B7E1A072ED59BF800102A4BB2
:10C1800095F828201B6803290CBF80214FF480718B
:10C1900003FB01F3062A4FEA43233FF479AF234917
:10C1A0000868834230D891F83D30002B7FF470AF9F
:10C1B000002A7FF46DAF6B6985F83820062185F879
:10C1C0002810EB622846FFF705FD012888D05FE7BD
:10C1D000FFF756F80198ACE7154B1A78002A7FF460
:10C1E00057AF95F82820002A7FF452AF082185F830
:10C1F000342085F82810D3F85F206B692846C5E9FC
:10C200000B32FFF7AFFEE0E741F2E5730122504643
:10C210000BF8032003B0BDE8F08F924638E700BF6B
:10C22000606D00200C85002088850020F0840020AF
:10C230002D8500202DE9F04390F8384083B0054665
:10C24000032C00F2A180DFE804F0021A8B0BFFF749
:10C2500089FE012811D002280BD1032385F838303C
:10C260002B6C002085F82800002B00F0898098476F
:10C270000224204603B0BDE8F08385F838002B780F
:10C28000022B79D0414A6F6841F64803D3581F40CA
:10C29000C7F34F272846FCF7CDF8DFF8F4800646B1
:10C2A0003F1A0AE0D8F800305A1E91454AD2FFF7EB
:10C2B000B5F908B9FEF7E4FF0136022201A900230F
